:060000000A128A11C02F54
:100E9800C034F934A434B034993492348234F834F8
:100EA800803490347E088A007F08820056270A1210
:100EB8008A118000840A04087D0603190034FF0A99
:100EC8000319FE0A5A2F0630831603139F00803039
:100ED8008800803087007008831203138800700828
:100EE800870083120313881F9A2FC330FD00CD306B
:100EF800FC00FC0B7D2FFD0B7D2F0130FC007C08D6
:100F0800FA070A307A020318FA017A08703E840058
:100F18000008831203138800881B902FC330FD003C
:100F2800CD30FC00FC0B962FFD0B962F831203137C
:100F3800871F752FC330FD00CD30FC00FC0BA22F9E
:100F4800FD0BA22F0130FC007C08FB070A307B0256
:100F58000318FB017B08703E84000008831203130A
:100F68008700871BB52FC330FD00CD30FC00FC0B7C
:100F7800BB2FFD0BBB2F752F0A128A114C270A12A3
:100F88008A11F0000A128A114D270A128A11F100FB
:100F98000A128A114E270A128A11F2000A128A11BD
:100FA8004F270A128A11F3000A128A1150270A12CF
:100FB8008A11F4000A128A1151270A128A11F500BF
:100FC8000A128A1152270A128A11F6000A128A1185
:100FD80053270A128A11F7000A128A1154270A1293
:100FE8008A11F8000A128A115527F900FA01FB0143
:080FF80083010A128A11672F20
:02400E0032FF7F
:00000001FF
