:060000000A128A11F02F24
:100C06008312031385018514851505300A128A118E
:100C1600D6260800831203138501051485160F30A6
:100C26000A128A11D6260800C034F934A434B03426
:100C3600993492348234F834803490347E088A00B1
:100C46007F08820021260A128A118000840A04087D
:100C56007D0603190034FF0A0319FE0A252EF30048
:100C66008312031389017308203E8400831300084E
:100C76008600023089002130F2007630F100F10B57
:100C8600422EF20B422E00008312031389017008D4
:100C9600203E84008313000886000430890021303A
:100CA600F2007630F100F10B562EF20B562E0000B4
:100CB60008000630831603139F0010308500860156
:100CC600890183120313850186018901732E0A1295
:100CD6008A1103260A128A1183120313051E6F2E28
:100CE6000A128A110D260A128A110A128A1103267D
:100CF6000A128A110A128A1181270A128A11003AE7
:100D0600031D6A2E0A128A1103260A128A11732EED
:100D1600F601F31F952EF209F309F20A0319F30AF5
:100D2600F601F60AF11F9C2EF009F109F00A0319E3
:100D3600F10A700871040319C92EF501F50AF11BB1
:100D4600B02E01300310F00DF10DFF3E031DA52E50
:100D56000130F4007408F507A22E71087302031D12
:100D6600B62E70087202031CBE2E7008F2027108BD
:100D7600031CF303F30201300310F10CF00CFF3EE9
:100D8600031DBF2E0130F502031DB02E7608031990
:100D9600D12EF209F309F20A0319F30A7308F100D6
:100DA6007208F000080083120313AA002A08F9004B
:100DB6007908AE002E08803A7F3E031C08000A30F0
:100DC600F0000030F1002E08F200F301F21BF303ED
:100DD6000A128A1128270A128A117008F90079085E
:100DE60083120313AB000A30F0000030F1002E0826
:100DF600F200F301F21BF3030A128A118B260A1280
:100E06008A117008F900790883120313AC00AD014A
:100E160064302D020318232F2C08F9007908F000FE
:100E26002B080A128A1132260A128A110130F90099
:100E3600790883120313AD0764302D02031C0F2FAC
:100E4600FF30F9007908AE07DD2EF601F11F322FCB
:100E5600F009F109F00A0319F10AF601F60AF31F7F
:100E66003D2FF209F309F20A0319F30A0130F400DF
:100E76007408F606F701F801700871040319742F57
:100E8600F501F50AF11B532F01300310F00DF10D9A
:100E9600FF3E031D482F0130F4007408F507452F67
:100EA60001300310F70DF80DFF3E031D542F710896
:100EB6007302031D602F70087202031C692F7008ED
:100EC600F2027108031CF303F302771401300310D6
:100ED600F10CF00CFF3E031D6A2F0130F502031DD5
:100EE600532F760803197C2FF709F809F70A031917
:100EF600F80A7808F1007708F00008008312031357
:100F06008501051585150F30F9007908AD002D0806
:100F1600803A7F3E031CEE2F0A30F0000030F100CD
:100F26002D08F200F301F21BF3030A128A11282797
:100F36000A128A117008F900790883120313AA00AD
:100F46000A30F0000030F1002D08F200F301F21B28
:100F5600F3030A128A118B260A128A117008F90005
:100F6600790883120313AB00AC0164302C0203181A
:100F7600E52F2B08F9007908F0002A080A128A11D1
:100F860032260A128A1183120313051ADD2F023044
:100F9600FB004530FA00A930F900F90BD02FFA0B07
:100FA600D02FFB0BD02FD72F83120313051ADD2F5B
:100FB600013008000130F9007908AC0764302C02D2
:100FC600031CBC2FFF30F9007908AD072D08803AC5
:100FD6007F3E03188F2F0030080083132A30FD0050
:100FE6000630FE001730FF00203084000A128A11F6
:0A0FF600252683010A128A115C2EE1
:02400E007A3FF7
:00000001FF
