:060000000A128A11122809
:10000800FE00030EF6000408F7000A08F800831241
:1000180003137F08F9000A128A11892A0A128A1121
:10002800152883135C30FD000630FE00F230FF0017
:10003800503084000A128A11BB26DC01DD01DE0182
:10004800DF01E001E101E201E301E401E501F00182
:10005800F101F201F301F40183010A128A11342833
:100068000730831603139F0010308500860189012D
:1000780008108814831203130810831603138715B6
:100088000716831203138501860189010A128A1152
:10009800D8260A128A110A128A1107270A128A1107
:1000A8000A128A11E5260A128A114E300A128A119A
:1000B800D8210A128A1183120313A601A60A013055
:1000C8000A128A116B250A128A1145300A128A11FE
:1000D8009B250A128A1183120313A601A60A02306D
:1000E8000A128A116B250A128A1155300A128A11CE
:1000F8009B250A128A11113083120313B7003C3072
:10010800B600CA30B500B50B8728B60B8728B70BE1
:10011800872800000A128A1123260A128A118B17CF
:100128000B1700300A128A11B8240A128A11831296
:1001380003135B080A128A1135250A128A118312E1
:1001480003135F08C0005E08BF005D08BE005C08BE
:10015800BD005F08C4005E08C3005D08C2005C08FB
:10016800C1005F08C8005E08C7005D08C6005C08DB
:10017800C500C901831203135F08CF005E08CE00D3
:100188005D08CD005C08CC004C08B5004D08B600F1
:100198004E08B7004F08B8003D09B9003E09BA003B
:1001A8003F09BB004009BC00B90A0319BA0A031980
:1001B800BB0A0319BC0A3908B5073A0803183A0FED
:1001C800E628E728B6073B0803183B0FEC28ED287C
:1001D800B7073C0803183C0AB8073808031D01296B
:1001E8003708031D012903303602031DFF28E830B4
:1001F8003502031DFF28031C1C29E830BD07033006
:1002080003180430BE07003003180130BF07003060
:1002180003180130C0070A128A1178240A128A11B9
:10022800831203135B080A128A1135250A128A11F0
:10023800831203134C08B5004D08B6004E08B700EA
:100248004F08B8004109B9004209BA004309BB0088
:100258004409BC00B90A0319BA0A0319BB0A0319ED
:10026800BC0A3908B5073A0803183A0F3C293D2952
:10027800B6073B0803183B0F42294329B7073C0838
:1002880003183C0AB8073808031D56293708031D08
:1002980056293608031D5629C8303502031D54292E
:1002A800031CBE284F08C4004E08C3004D08C200F6
:1002B8004C08C1000A128A11C1250A128A11831238
:1002C80003133208CB003108CA004A084B0403194B
:1002D800C72900304B02153003194A020318C729F1
:1002E8004C08B5004D08B6004E08B7004F08B800D6
:1002F8004509B9004609BA004709BB004809BC00CE
:10030800B90A0319BA0A0319BB0A0319BC0A39083E
:10031800B5073A0803183A0F92299329B6073B08FC
:1003280003183B0F98299929B7073C0803183C0A7A
:10033800B8073808031DAC293708031DAC2936084F
:10034800031DAC29FA303502031DAA29031CBE2857
:100358004F08C8004E08C7004D08C6004C08C50025
:100368000130B5003508C90649080319C1290A1220
:100378008A11E5250A128A11BE280A128A11232633
:100388000A128A11BE2883120313C9014F08C80034
:100398004E08C7004D08C6004C08C5000A128A114D
:1003A80004260A128A11BE2883120313A9002908F9
:1003B800A6002608E60000300A128A117E260A12D4
:1003C8008A119C3083120313A700D630A600A60B0F
:1003D800EB29A70BEB29000003300A128A119B2690
:1003E8000A128A111A3083120313A700F730A600E5
:1003F800A60BFC29A70BFC29012A03300A128A1133
:100408009B260A128A111A3083120313A700F730A9
:10041800A600A60B0D2AA70B0D2A122A03300A12D2
:100428008A119B260A128A111A3083120313A70015
:10043800F730A600A60B1E2AA70B1E2A232A023075
:100448000A128A119B260A128A111A308312031380
:10045800A700F730A600A60B2F2AA70B2F2A342AAD
:1004680028300A128A119B260A128A110230831236
:100478000313A8000430A700B930A600A60B422A2F
:10048800A70B422AA80B422A492A0C300A128A11C1
:100498009B260A128A11023083120313A800043023
:1004A800A700B930A600A60B572AA70B572AA80BF6
:1004B800572A5E2A01300A128A119B260A128A11CB
:1004C800023083120313A8000430A700B930A60035
:1004D800A60B6C2AA70B6C2AA80B6C2A732A063069
:1004E8000A128A119B260A128A11023083120313F8
:1004F800A8000430A700B930A600A60B812AA70BD4
:10050800812AA80B812A882A08000B1DEB2A0B11C7
:10051800051AA62A7208031DA82A143073020318A4
:10052800992A0130F5007508F30714307302031C8B
:10053800A82A0130F5007508F4000130F5007508A7
:10054800F200A82AF301F2016630E0070318E10A75
:100558000630E10703306102E83003196002031C2A
:10056800CA2AE830E0020330031CE103E10201304B
:10057800DC07003003180130DD07003003180130B4
:10058800DE07003003180130DF07AE2A0130F5001E
:100598007508E40703306402031CEB2AE4018901AF
:1005A8006308031DE22A7108503E84008313000883
:1005B800860002308900E301E30AEB2A7008503E06
:1005C800840083130008860004308900E301790859
:1005D800FF0078088A0077088400760E8300FE0EF4
:0405E8007E0E09007A
:1006000003308A000408840A82070034203420342E
:10061000203420342034203420342034203420343A
:10062000203420342034203420342034003420344A
:100630007734613472346E3469346E346734203404
:10064000203420342034203420342034203400342A
:1006500020344734723465346134743420346A345D
:100660006F34623420342034203420342034203459
:10067000003420346C3469346D346934743420347B
:10068000703461347334733465346434203420340A
:100690002034003420345434723461346634663487
:1006A000693463342034203420342034203420341E
:1006B00020340034203452346534673475346C345B
:1006C000613474346F34743469346F346E34733419
:1006D000203400348312031308106E2B6F2B702B01
:1006E000712B8312031308140C3083120313AA0016
:1006F000AA0B782B00008312031308100030AE0001
:100700000030AD000030AC000030AB008818AD2BDD
:10071000892B8A2B013083120313AB070030031897
:100720000130AC07003003180130AD07003003186A
:100730000130AE072E08031DAA2B2D08031DAA2B7E
:1007400075302C02031DA82B31302B02031DA82B62
:10075000031C862BA801A90108008F018E010C1033
:100760001014881CB92B0C1CB12B1010A801A90166
:10077000080010100F08B0000E08AF000530A000F0
:100780000030A1003008A3002F08A2000A128A112D
:10079000F724831203132108A9002008A8000800E9
:1007A00083120313A601A11FDC2BA009A109A00A33
:1007B0000319A10AA601A60AA31FE72BA209A309F0
:1007C000A20A0319A30A0130A4002408A606A7015F
:1007D000A8012008210403191E2CA501A50AA11BAC
:1007E000FD2B01300310A00DA10DFF3E031DF22BC8
:1007F0000130A4002408A507EF2B01300310A70D3A
:10080000A80DFF3E031DFE2B21082302031D0A2C09
:1008100020082202031C132C2008A2022108031C1A
:10082000A303A302271401300310A10CA00CFF3E68
:10083000031D142C0130A502031DFD2B26080319EE
:10084000262CA709A809A70A0319A80A2808A100A5
:100850002708A000080083120313A601A31F372C4A
:10086000A209A309A20A0319A30AA601A60AA11FA5
:100870003E2CA009A109A00A0319A10A20082104FD
:1008800003196B2CA501A50AA11B522C01300310E2
:10089000A00DA10DFF3E031D472C0130A40024082C
:1008A000A507442C21082302031D582C20082202EE
:1008B000031C602C2008A2022108031CA303A3022E
:1008C00001300310A10CA00CFF3E031D612C013070
:1008D000A502031D522C26080319732CA209A30993
:1008E000A20A0319A30A2308A1002208A0000800F5
:1008F0000230831203136506031D872C7408031945
:10090000872CF40103300A128A11B82408008312DC
:1009100003135B0803198E2C0130DB025B08031DF7
:100920000800A62C01300A128A11B82408000230EF
:100930000A128A11B824080003300A128A11B82456
:10094000080000300A128A11B82408008312031329
:100950006508003A0319922C013A0319972C033ABF
:1009600003199C2C013A0319A12CB72C080008008C
:1009700083120313A1002108A0002008E500E62C43
:100980000F30A0002008DB000A128A111C27080083
:10099000053083120313A0002008DB000A128A111D
:1009A000222708000F3083120313A0002008DB0069
:1009B0000A128A1128270800053083120313A000A9
:1009C0002008DB000A128A11222708008312031371
:1009D0002108003A0319C02C013A0319C82C033A24
:1009E0000319D22C013A0319DC2CF62C08008312CF
:1009F0000313A601A701200821040319302DA50126
:100A0000A50AA11B0F2D01300310A00DA10DFF3E63
:100A1000031D042D0130A4002408A507012D013079
:100A20000310A60DA70DFF3E031D102D2108230264
:100A3000031D1C2D20082202031C252D2008A202C4
:100A40002108031CA303A302261401300310A10CE8
:100A5000A00CFF3E031D262D0130A502031D0F2D06
:100A60002708A1002608A000080083120313AC0089
:100A700064302C02031C402D6330A9002908AC000F
:100A80000A30A0000030A1002C08A900AA01290802
:100A9000A2002A08A3000A128A11D0230A128A117E
:100AA000831203132008AB002B08F1000A30A000CA
:100AB0000030A1002C08A900AA012908A2002A08D8
:100AC000A3000A128A112B24831203132008AB00FF
:100AD0002B08F000080083120313A7008D2D2608B1
:100AE000BF3E0A128A119B260800831203132608B0
:100AF000933E0A128A119B260800831203132608CC
:100B0000D33E0A128A119B2608008312031326087B
:100B10007F3E0A128A119B260800831203132708BE
:100B2000023A03196F2D013A0319752D073A03197B
:100B30007D2D852D080083120313A800A601A701AF
:100B40002608280784000A128A1100230A128A1133
:100B5000003A031908002608280784000A128A119F
:100B600000230A128A110A128A1161260A128A11B6
:100B7000013083120313A6070318A70A0030A70742
:100B8000A02D0A128A116A230A128A1183120313F2
:100B90002908B4002808B30033083404031DD32DFA
:100BA000B101B20108003A30A0000030A1003408C1
:100BB000A3003308A2000A128A11F7248312031338
:100BC0002108B2002008B100080083120313A60117
:100BD000A60A01300A128A116B250A128A111230F4
:100BE0000A128A119B250A128A1183120313A60185
:100BF000A60A02300A128A116B250A128A113430B1
:100C00000A128A119B25080083120313A601A60A63
:100C100001300A128A116B250A128A1123300A1236
:100C20008A119B250A128A1183120313A601A60AB0
:100C300002300A128A116B250A128A1101300A1237
:100C40008A119B25080083120313A601A60A01300E
:100C50000A128A116B250A128A1101300A128A11AE
:100C60009B250A128A1183120313A601A60A0230D9
:100C70000A128A116B250A128A1101300A128A118E
:100C80009B25080083120313A3006208A200220818
:100C9000A304230804380A128A117E260A128A1134
:100CA000831203132308FB390A128A117E260A12C3
:100CB0008A11413083120313A200A20B5D2E602E15
:100CC000080083120313A500E201E20A2508F039A7
:100CD0000A128A1142260A128A1183120313250866
:100CE000A40003300310A40DFF3E031D722E031059
:100CF000240DF0390A128A114226080083120313C8
:100D0000A1000A128A1115270A128A1183120313ED
:100D100066080A128A11C8260A128A11831203135E
:100D200021085A040A128A11C8260A128A110A12C4
:100D30008A110E27080083120313A500E20125087B
:100D4000F0390A128A1142260A128A1183120313F9
:100D50002508A40003300310A40DFF3E031DAB2E95
:100D60000310240DF0390A128A11422608007E0869
:100D70008A007F088200B7260A128A118000840A3E
:100D800004087D0603190034FF0A0319FE0ABB2E6E
:100D900083120313A0000A128A11FE260A128A1176
:100DA00083120313200893008C1DD42E8C1108008D
:100DB0008316031381128111011581100110831212
:100DC000031381010B118B160800283083120313C3
:100DD0009400831603139101940127309300871523
:100DE00007160800C034F934A434B034993492346E
:100DF0008234F8348034903408340F34831603136B
:100E00001419FE2E11081F3903190800FE2E831233
:100E1000031390018F018E010C1008000A128A1131
:100E2000FE2683160313111508000A128A11FE26E6
:100E3000831603131114080083120313850105148C
:100E40008516080083120313850185148515080093
:0C0E5000831203138501051585150800A9
:02400E00723FFF
:00000001FF
